{
	"contracts/Arrays.sol": {
		"MyContract": {
			"abi": [
				{
					"inputs": [],
					"name": "deleteData",
					"outputs": [],
					"stateMutability": "nonpayable",
					"type": "function"
				},
				{
					"inputs": [
						{
							"internalType": "uint256",
							"name": "_a",
							"type": "uint256"
						}
					],
					"name": "insertData",
					"outputs": [],
					"stateMutability": "nonpayable",
					"type": "function"
				},
				{
					"inputs": [],
					"name": "memArrays",
					"outputs": [],
					"stateMutability": "nonpayable",
					"type": "function"
				},
				{
					"inputs": [],
					"name": "readData",
					"outputs": [
						{
							"internalType": "uint256",
							"name": "",
							"type": "uint256"
						}
					],
					"stateMutability": "view",
					"type": "function"
				},
				{
					"inputs": [
						{
							"internalType": "uint256",
							"name": "_b",
							"type": "uint256"
						}
					],
					"name": "updateData",
					"outputs": [],
					"stateMutability": "nonpayable",
					"type": "function"
				}
			],
			"devdoc": {
				"methods": {}
			},
			"evm": {
				"assembly": "    /* \"contracts/Arrays.sol\":25:881  contract MyContract{... */\n  mstore(0x40, 0x80)\n  callvalue\n    /* \"--CODEGEN--\":8:17   */\n  dup1\n    /* \"--CODEGEN--\":5:7   */\n  iszero\n  tag_1\n  jumpi\n    /* \"--CODEGEN--\":30:31   */\n  0x00\n    /* \"--CODEGEN--\":27:28   */\n  dup1\n    /* \"--CODEGEN--\":20:32   */\n  revert\n    /* \"--CODEGEN--\":5:7   */\ntag_1:\n    /* \"contracts/Arrays.sol\":25:881  contract MyContract{... */\n  pop\n  dataSize(sub_0)\n  dup1\n  dataOffset(sub_0)\n  0x00\n  codecopy\n  0x00\n  return\nstop\n\nsub_0: assembly {\n        /* \"contracts/Arrays.sol\":25:881  contract MyContract{... */\n      mstore(0x40, 0x80)\n      callvalue\n        /* \"--CODEGEN--\":8:17   */\n      dup1\n        /* \"--CODEGEN--\":5:7   */\n      iszero\n      tag_1\n      jumpi\n        /* \"--CODEGEN--\":30:31   */\n      0x00\n        /* \"--CODEGEN--\":27:28   */\n      dup1\n        /* \"--CODEGEN--\":20:32   */\n      revert\n        /* \"--CODEGEN--\":5:7   */\n    tag_1:\n        /* \"contracts/Arrays.sol\":25:881  contract MyContract{... */\n      pop\n      jumpi(tag_2, lt(calldatasize, 0x04))\n      shr(0xe0, calldataload(0x00))\n      dup1\n      0x09e96008\n      eq\n      tag_3\n      jumpi\n      dup1\n      0x479291ef\n      eq\n      tag_4\n      jumpi\n      dup1\n      0x80801431\n      eq\n      tag_5\n      jumpi\n      dup1\n      0xbef55ef3\n      eq\n      tag_6\n      jumpi\n      dup1\n      0xe0ba432a\n      eq\n      tag_7\n      jumpi\n    tag_2:\n      0x00\n      dup1\n      revert\n        /* \"contracts/Arrays.sol\":343:438  function updateData(uint _b) external{... */\n    tag_3:\n      tag_8\n      0x04\n      dup1\n      calldatasize\n      sub\n        /* \"--CODEGEN--\":13:15   */\n      0x20\n        /* \"--CODEGEN--\":8:11   */\n      dup2\n        /* \"--CODEGEN--\":5:16   */\n      lt\n        /* \"--CODEGEN--\":2:4   */\n      iszero\n      tag_9\n      jumpi\n        /* \"--CODEGEN--\":29:30   */\n      0x00\n        /* \"--CODEGEN--\":26:27   */\n      dup1\n        /* \"--CODEGEN--\":19:31   */\n      revert\n        /* \"--CODEGEN--\":2:4   */\n    tag_9:\n        /* \"contracts/Arrays.sol\":343:438  function updateData(uint _b) external{... */\n      dup2\n      add\n      swap1\n      dup1\n      dup1\n      calldataload\n      swap1\n      0x20\n      add\n      swap1\n      swap3\n      swap2\n      swap1\n      pop\n      pop\n      pop\n      tag_10\n      jump\t// in\n    tag_8:\n      stop\n        /* \"contracts/Arrays.sol\":163:337  function insertData (uint _a) external{... */\n    tag_4:\n      tag_11\n      0x04\n      dup1\n      calldatasize\n      sub\n        /* \"--CODEGEN--\":13:15   */\n      0x20\n        /* \"--CODEGEN--\":8:11   */\n      dup2\n        /* \"--CODEGEN--\":5:16   */\n      lt\n        /* \"--CODEGEN--\":2:4   */\n      iszero\n      tag_12\n      jumpi\n        /* \"--CODEGEN--\":29:30   */\n      0x00\n        /* \"--CODEGEN--\":26:27   */\n      dup1\n        /* \"--CODEGEN--\":19:31   */\n      revert\n        /* \"--CODEGEN--\":2:4   */\n    tag_12:\n        /* \"contracts/Arrays.sol\":163:337  function insertData (uint _a) external{... */\n      dup2\n      add\n      swap1\n      dup1\n      dup1\n      calldataload\n      swap1\n      0x20\n      add\n      swap1\n      swap3\n      swap2\n      swap1\n      pop\n      pop\n      pop\n      tag_13\n      jump\t// in\n    tag_11:\n      stop\n        /* \"contracts/Arrays.sol\":617:878  function memArrays()external{... */\n    tag_5:\n      tag_14\n      tag_15\n      jump\t// in\n    tag_14:\n      stop\n        /* \"contracts/Arrays.sol\":444:524  function readData() external view returns(uint){... */\n    tag_6:\n      tag_16\n      tag_17\n      jump\t// in\n    tag_16:\n      mload(0x40)\n      dup1\n      dup3\n      dup2\n      mstore\n      0x20\n      add\n      swap2\n      pop\n      pop\n      mload(0x40)\n      dup1\n      swap2\n      sub\n      swap1\n      return\n        /* \"contracts/Arrays.sol\":530:593  function deleteData() external {... */\n    tag_7:\n      tag_18\n      tag_19\n      jump\t// in\n    tag_18:\n      stop\n        /* \"contracts/Arrays.sol\":343:438  function updateData(uint _b) external{... */\n    tag_10:\n        /* \"contracts/Arrays.sol\":401:403  _b */\n      dup1\n        /* \"contracts/Arrays.sol\":390:395  myArr */\n      0x00\n        /* \"contracts/Arrays.sol\":396:397  0 */\n      dup1\n        /* \"contracts/Arrays.sol\":390:398  myArr[0] */\n      dup2\n      sload\n      dup2\n      lt\n      tag_21\n      jumpi\n      invalid\n    tag_21:\n      swap1\n      0x00\n      mstore\n      keccak256(0x00, 0x20)\n      add\n        /* \"contracts/Arrays.sol\":390:403  myArr[0] = _b */\n      dup2\n      swap1\n      sstore\n      pop\n        /* \"contracts/Arrays.sol\":343:438  function updateData(uint _b) external{... */\n      pop\n      jump\t// out\n        /* \"contracts/Arrays.sol\":163:337  function insertData (uint _a) external{... */\n    tag_13:\n        /* \"contracts/Arrays.sol\":211:216  myArr */\n      0x00\n        /* \"contracts/Arrays.sol\":222:224  _a */\n      dup2\n        /* \"contracts/Arrays.sol\":211:225  myArr.push(_a) */\n      swap1\n      dup1\n        /* \"--CODEGEN--\":39:40   */\n      0x01\n        /* \"--CODEGEN--\":33:36   */\n      dup2\n        /* \"--CODEGEN--\":27:37   */\n      sload\n        /* \"--CODEGEN--\":23:41   */\n      add\n        /* \"--CODEGEN--\":57:67   */\n      dup1\n        /* \"--CODEGEN--\":52:55   */\n      dup3\n        /* \"--CODEGEN--\":45:68   */\n      sstore\n        /* \"--CODEGEN--\":79:89   */\n      dup1\n        /* \"--CODEGEN--\":72:89   */\n      swap2\n      pop\n        /* \"--CODEGEN--\":0:93   */\n      pop\n        /* \"contracts/Arrays.sol\":211:225  myArr.push(_a) */\n      0x01\n      swap1\n      sub\n      swap1\n      0x00\n      mstore\n      keccak256(0x00, 0x20)\n      add\n      0x00\n      swap1\n      swap2\n      swap1\n      swap2\n      swap1\n      swap2\n      pop\n      sstore\n        /* \"contracts/Arrays.sol\":163:337  function insertData (uint _a) external{... */\n      pop\n      jump\t// out\n        /* \"contracts/Arrays.sol\":617:878  function memArrays()external{... */\n    tag_15:\n        /* \"contracts/Arrays.sol\":655:674  uint [] memory ages */\n      0x60\n        /* \"contracts/Arrays.sol\":688:689  5 */\n      0x05\n        /* \"contracts/Arrays.sol\":677:690  new uint[](5) */\n      mload(0x40)\n      swap1\n      dup1\n      dup3\n      mstore\n      dup1\n      0x20\n      mul\n      0x20\n      add\n      dup3\n      add\n      0x40\n      mstore\n      dup1\n      iszero\n      tag_26\n      jumpi\n      dup2\n      0x20\n      add\n        /* \"--CODEGEN--\":29:31   */\n      0x20\n        /* \"--CODEGEN--\":21:27   */\n      dup3\n        /* \"--CODEGEN--\":17:32   */\n      mul\n        /* \"--CODEGEN--\":117:121   */\n      dup1\n        /* \"--CODEGEN--\":105:115   */\n      codesize\n        /* \"--CODEGEN--\":97:103   */\n      dup4\n        /* \"--CODEGEN--\":88:122   */\n      codecopy\n        /* \"--CODEGEN--\":148:152   */\n      dup1\n        /* \"--CODEGEN--\":140:146   */\n      dup3\n        /* \"--CODEGEN--\":136:153   */\n      add\n        /* \"--CODEGEN--\":126:153   */\n      swap2\n      pop\n        /* \"--CODEGEN--\":0:157   */\n      pop\n        /* \"contracts/Arrays.sol\":677:690  new uint[](5) */\n      swap1\n      pop\n    tag_26:\n      pop\n        /* \"contracts/Arrays.sol\":655:690  uint [] memory ages = new uint[](5) */\n      swap1\n      pop\n        /* \"contracts/Arrays.sol\":736:738  10 */\n      0x0a\n        /* \"contracts/Arrays.sol\":726:730  ages */\n      dup2\n        /* \"contracts/Arrays.sol\":731:732  0 */\n      0x00\n        /* \"contracts/Arrays.sol\":726:733  ages[0] */\n      dup2\n      mload\n      dup2\n      lt\n      tag_27\n      jumpi\n      invalid\n    tag_27:\n      0x20\n      mul\n      0x20\n      add\n      add\n        /* \"contracts/Arrays.sol\":726:738  ages[0] = 10 */\n      dup2\n      dup2\n      mstore\n      pop\n      pop\n        /* \"contracts/Arrays.sol\":758:760  40 */\n      0x28\n        /* \"contracts/Arrays.sol\":748:752  ages */\n      dup2\n        /* \"contracts/Arrays.sol\":753:754  1 */\n      0x01\n        /* \"contracts/Arrays.sol\":748:755  ages[1] */\n      dup2\n      mload\n      dup2\n      lt\n      tag_28\n      jumpi\n      invalid\n    tag_28:\n      0x20\n      mul\n      0x20\n      add\n      add\n        /* \"contracts/Arrays.sol\":748:760  ages[1] = 40 */\n      dup2\n      dup2\n      mstore\n      pop\n      pop\n        /* \"contracts/Arrays.sol\":794:798  ages */\n      dup1\n        /* \"contracts/Arrays.sol\":799:800  0 */\n      0x00\n        /* \"contracts/Arrays.sol\":794:801  ages[0] */\n      dup2\n      mload\n      dup2\n      lt\n      tag_29\n      jumpi\n      invalid\n    tag_29:\n      0x20\n      mul\n      0x20\n      add\n      add\n      mload\n      pop\n        /* \"contracts/Arrays.sol\":841:843  89 */\n      0x59\n        /* \"contracts/Arrays.sol\":831:835  ages */\n      dup2\n        /* \"contracts/Arrays.sol\":836:837  0 */\n      0x00\n        /* \"contracts/Arrays.sol\":831:838  ages[0] */\n      dup2\n      mload\n      dup2\n      lt\n      tag_30\n      jumpi\n      invalid\n    tag_30:\n      0x20\n      mul\n      0x20\n      add\n      add\n        /* \"contracts/Arrays.sol\":831:843  ages[0] = 89 */\n      dup2\n      dup2\n      mstore\n      pop\n      pop\n        /* \"contracts/Arrays.sol\":861:865  ages */\n      dup1\n        /* \"contracts/Arrays.sol\":866:867  2 */\n      0x02\n        /* \"contracts/Arrays.sol\":861:868  ages[2] */\n      dup2\n      mload\n      dup2\n      lt\n      tag_31\n      jumpi\n      invalid\n    tag_31:\n      0x20\n      mul\n      0x20\n      add\n      add\n        /* \"contracts/Arrays.sol\":854:868  delete ages[2] */\n      0x00\n      dup2\n      mstore\n      pop\n        /* \"contracts/Arrays.sol\":617:878  function memArrays()external{... */\n      pop\n      jump\t// out\n        /* \"contracts/Arrays.sol\":444:524  function readData() external view returns(uint){... */\n    tag_17:\n        /* \"contracts/Arrays.sol\":486:490  uint */\n      0x00\n        /* \"contracts/Arrays.sol\":509:514  myArr */\n      dup1\n        /* \"contracts/Arrays.sol\":515:516  0 */\n      0x00\n        /* \"contracts/Arrays.sol\":509:517  myArr[0] */\n      dup2\n      sload\n      dup2\n      lt\n      tag_33\n      jumpi\n      invalid\n    tag_33:\n      swap1\n      0x00\n      mstore\n      keccak256(0x00, 0x20)\n      add\n      sload\n        /* \"contracts/Arrays.sol\":502:517  return myArr[0] */\n      swap1\n      pop\n        /* \"contracts/Arrays.sol\":444:524  function readData() external view returns(uint){... */\n      swap1\n      jump\t// out\n        /* \"contracts/Arrays.sol\":530:593  function deleteData() external {... */\n    tag_19:\n        /* \"contracts/Arrays.sol\":578:583  myArr */\n      0x00\n        /* \"contracts/Arrays.sol\":584:585  0 */\n      dup1\n        /* \"contracts/Arrays.sol\":578:586  myArr[0] */\n      dup2\n      sload\n      dup2\n      lt\n      tag_36\n      jumpi\n      invalid\n    tag_36:\n      swap1\n      0x00\n      mstore\n      keccak256(0x00, 0x20)\n      add\n        /* \"contracts/Arrays.sol\":571:586  delete myArr[0] */\n      0x00\n      swap1\n      sstore\n        /* \"contracts/Arrays.sol\":530:593  function deleteData() external {... */\n      jump\t// out\n\n    auxdata: 0xa26469706673582212201a7c28d655df6592df97b4dc0694689087f6b210436bd762c8fcc3a72b9a977b64736f6c63430006000033\n}\n",
				"bytecode": {
					"linkReferences": {},
					"object": "608060405234801561001057600080fd5b5061025f806100206000396000f3fe608060405234801561001057600080fd5b50600436106100575760003560e01c806309e960081461005c578063479291ef1461008a57806380801431146100b8578063bef55ef3146100c2578063e0ba432a146100e0575b600080fd5b6100886004803603602081101561007257600080fd5b81019080803590602001909291905050506100ea565b005b6100b6600480360360208110156100a057600080fd5b8101908080359060200190929190505050610109565b005b6100c0610135565b005b6100ca6101ed565b6040518082815260200191505060405180910390f35b6100e861020c565b005b80600080815481106100f857fe5b906000526020600020018190555050565b600081908060018154018082558091505060019003906000526020600020016000909190919091505550565b606060056040519080825280602002602001820160405280156101675781602001602082028038833980820191505090505b509050600a8160008151811061017957fe5b60200260200101818152505060288160018151811061019457fe5b602002602001018181525050806000815181106101ad57fe5b6020026020010151506059816000815181106101c557fe5b602002602001018181525050806002815181106101de57fe5b60200260200101600081525050565b6000806000815481106101fc57fe5b9060005260206000200154905090565b6000808154811061021957fe5b906000526020600020016000905556fea26469706673582212201a7c28d655df6592df97b4dc0694689087f6b210436bd762c8fcc3a72b9a977b64736f6c63430006000033",
					"opcodes": "PUSH1 0x80 PUSH1 0x40 MSTORE CALLVALUE DUP1 ISZERO PUSH2 0x10 JUMPI PUSH1 0x0 DUP1 REVERT JUMPDEST POP PUSH2 0x25F DUP1 PUSH2 0x20 PUSH1 0x0 CODECOPY PUSH1 0x0 RETURN INVALID PUSH1 0x80 PUSH1 0x40 MSTORE CALLVALUE DUP1 ISZERO PUSH2 0x10 JUMPI PUSH1 0x0 DUP1 REVERT JUMPDEST POP PUSH1 0x4 CALLDATASIZE LT PUSH2 0x57 JUMPI PUSH1 0x0 CALLDATALOAD PUSH1 0xE0 SHR DUP1 PUSH4 0x9E96008 EQ PUSH2 0x5C JUMPI DUP1 PUSH4 0x479291EF EQ PUSH2 0x8A JUMPI DUP1 PUSH4 0x80801431 EQ PUSH2 0xB8 JUMPI DUP1 PUSH4 0xBEF55EF3 EQ PUSH2 0xC2 JUMPI DUP1 PUSH4 0xE0BA432A EQ PUSH2 0xE0 JUMPI JUMPDEST PUSH1 0x0 DUP1 REVERT JUMPDEST PUSH2 0x88 PUSH1 0x4 DUP1 CALLDATASIZE SUB PUSH1 0x20 DUP2 LT ISZERO PUSH2 0x72 JUMPI PUSH1 0x0 DUP1 REVERT JUMPDEST DUP2 ADD SWAP1 DUP1 DUP1 CALLDATALOAD SWAP1 PUSH1 0x20 ADD SWAP1 SWAP3 SWAP2 SWAP1 POP POP POP PUSH2 0xEA JUMP JUMPDEST STOP JUMPDEST PUSH2 0xB6 PUSH1 0x4 DUP1 CALLDATASIZE SUB PUSH1 0x20 DUP2 LT ISZERO PUSH2 0xA0 JUMPI PUSH1 0x0 DUP1 REVERT JUMPDEST DUP2 ADD SWAP1 DUP1 DUP1 CALLDATALOAD SWAP1 PUSH1 0x20 ADD SWAP1 SWAP3 SWAP2 SWAP1 POP POP POP PUSH2 0x109 JUMP JUMPDEST STOP JUMPDEST PUSH2 0xC0 PUSH2 0x135 JUMP JUMPDEST STOP JUMPDEST PUSH2 0xCA PUSH2 0x1ED JUMP JUMPDEST PUSH1 0x40 MLOAD DUP1 DUP3 DUP2 MSTORE PUSH1 0x20 ADD SWAP2 POP POP PUSH1 0x40 MLOAD DUP1 SWAP2 SUB SWAP1 RETURN JUMPDEST PUSH2 0xE8 PUSH2 0x20C JUMP JUMPDEST STOP JUMPDEST DUP1 PUSH1 0x0 DUP1 DUP2 SLOAD DUP2 LT PUSH2 0xF8 JUMPI INVALID JUMPDEST SWAP1 PUSH1 0x0 MSTORE PUSH1 0x20 PUSH1 0x0 KECCAK256 ADD DUP2 SWAP1 SSTORE POP POP JUMP JUMPDEST PUSH1 0x0 DUP2 SWAP1 DUP1 PUSH1 0x1 DUP2 SLOAD ADD DUP1 DUP3 SSTORE DUP1 SWAP2 POP POP PUSH1 0x1 SWAP1 SUB SWAP1 PUSH1 0x0 MSTORE PUSH1 0x20 PUSH1 0x0 KECCAK256 ADD PUSH1 0x0 SWAP1 SWAP2 SWAP1 SWAP2 SWAP1 SWAP2 POP SSTORE POP JUMP JUMPDEST PUSH1 0x60 PUSH1 0x5 PUSH1 0x40 MLOAD SWAP1 DUP1 DUP3 MSTORE DUP1 PUSH1 0x20 MUL PUSH1 0x20 ADD DUP3 ADD PUSH1 0x40 MSTORE DUP1 ISZERO PUSH2 0x167 JUMPI DUP2 PUSH1 0x20 ADD PUSH1 0x20 DUP3 MUL DUP1 CODESIZE DUP4 CODECOPY DUP1 DUP3 ADD SWAP2 POP POP SWAP1 POP JUMPDEST POP SWAP1 POP PUSH1 0xA DUP2 PUSH1 0x0 DUP2 MLOAD DUP2 LT PUSH2 0x179 JUMPI INVALID JUMPDEST PUSH1 0x20 MUL PUSH1 0x20 ADD ADD DUP2 DUP2 MSTORE POP POP PUSH1 0x28 DUP2 PUSH1 0x1 DUP2 MLOAD DUP2 LT PUSH2 0x194 JUMPI INVALID JUMPDEST PUSH1 0x20 MUL PUSH1 0x20 ADD ADD DUP2 DUP2 MSTORE POP POP DUP1 PUSH1 0x0 DUP2 MLOAD DUP2 LT PUSH2 0x1AD JUMPI INVALID JUMPDEST PUSH1 0x20 MUL PUSH1 0x20 ADD ADD MLOAD POP PUSH1 0x59 DUP2 PUSH1 0x0 DUP2 MLOAD DUP2 LT PUSH2 0x1C5 JUMPI INVALID JUMPDEST PUSH1 0x20 MUL PUSH1 0x20 ADD ADD DUP2 DUP2 MSTORE POP POP DUP1 PUSH1 0x2 DUP2 MLOAD DUP2 LT PUSH2 0x1DE JUMPI INVALID JUMPDEST PUSH1 0x20 MUL PUSH1 0x20 ADD ADD PUSH1 0x0 DUP2 MSTORE POP POP JUMP JUMPDEST PUSH1 0x0 DUP1 PUSH1 0x0 DUP2 SLOAD DUP2 LT PUSH2 0x1FC JUMPI INVALID JUMPDEST SWAP1 PUSH1 0x0 MSTORE PUSH1 0x20 PUSH1 0x0 KECCAK256 ADD SLOAD SWAP1 POP SWAP1 JUMP JUMPDEST PUSH1 0x0 DUP1 DUP2 SLOAD DUP2 LT PUSH2 0x219 JUMPI INVALID JUMPDEST SWAP1 PUSH1 0x0 MSTORE PUSH1 0x20 PUSH1 0x0 KECCAK256 ADD PUSH1 0x0 SWAP1 SSTORE JUMP INVALID LOG2 PUSH5 0x6970667358 0x22 SLT KECCAK256 BYTE PUSH29 0x28D655DF6592DF97B4DC0694689087F6B210436BD762C8FCC3A72B9A97 PUSH28 0x64736F6C634300060000330000000000000000000000000000000000 "
				},
				"gasEstimates": {
					"creation": {
						"codeDepositCost": "121400",
						"executionCost": "165",
						"totalCost": "121565"
					},
					"external": {
						"deleteData()": "6099",
						"insertData(uint256)": "41151",
						"memArrays()": "645",
						"readData()": "1937",
						"updateData(uint256)": "21100"
					}
				},
				"methodIdentifiers": {
					"deleteData()": "e0ba432a",
					"insertData(uint256)": "479291ef",
					"memArrays()": "80801431",
					"readData()": "bef55ef3",
					"updateData(uint256)": "09e96008"
				}
			},
			"storageLayout": {
				"storage": [
					{
						"astId": 4,
						"contract": "contracts/Arrays.sol:MyContract",
						"label": "myArr",
						"offset": 0,
						"slot": "0",
						"type": "t_array(t_uint256)dyn_storage"
					}
				],
				"types": {
					"t_array(t_uint256)dyn_storage": {
						"base": "t_uint256",
						"encoding": "dynamic_array",
						"label": "uint256[]",
						"numberOfBytes": "32"
					},
					"t_uint256": {
						"encoding": "inplace",
						"label": "uint256",
						"numberOfBytes": "32"
					}
				}
			},
			"userdoc": {
				"methods": {}
			}
		}
	}
}