{
	"contracts/Arrays.sol": {
		"MyContract": {
			"abi": [
				{
					"inputs": [],
					"name": "deleteData",
					"outputs": [],
					"stateMutability": "nonpayable",
					"type": "function"
				},
				{
					"inputs": [
						{
							"internalType": "uint256",
							"name": "_a",
							"type": "uint256"
						}
					],
					"name": "insertData",
					"outputs": [],
					"stateMutability": "nonpayable",
					"type": "function"
				},
				{
					"inputs": [],
					"name": "readData",
					"outputs": [
						{
							"internalType": "uint256",
							"name": "",
							"type": "uint256"
						}
					],
					"stateMutability": "view",
					"type": "function"
				},
				{
					"inputs": [
						{
							"internalType": "uint256",
							"name": "_b",
							"type": "uint256"
						}
					],
					"name": "updateData",
					"outputs": [],
					"stateMutability": "nonpayable",
					"type": "function"
				}
			],
			"devdoc": {
				"methods": {}
			},
			"evm": {
				"assembly": "    /* \"contracts/Arrays.sol\":25:598  contract MyContract{... */\n  mstore(0x40, 0x80)\n  callvalue\n    /* \"--CODEGEN--\":8:17   */\n  dup1\n    /* \"--CODEGEN--\":5:7   */\n  iszero\n  tag_1\n  jumpi\n    /* \"--CODEGEN--\":30:31   */\n  0x00\n    /* \"--CODEGEN--\":27:28   */\n  dup1\n    /* \"--CODEGEN--\":20:32   */\n  revert\n    /* \"--CODEGEN--\":5:7   */\ntag_1:\n    /* \"contracts/Arrays.sol\":25:598  contract MyContract{... */\n  pop\n  dataSize(sub_0)\n  dup1\n  dataOffset(sub_0)\n  0x00\n  codecopy\n  0x00\n  return\nstop\n\nsub_0: assembly {\n        /* \"contracts/Arrays.sol\":25:598  contract MyContract{... */\n      mstore(0x40, 0x80)\n      callvalue\n        /* \"--CODEGEN--\":8:17   */\n      dup1\n        /* \"--CODEGEN--\":5:7   */\n      iszero\n      tag_1\n      jumpi\n        /* \"--CODEGEN--\":30:31   */\n      0x00\n        /* \"--CODEGEN--\":27:28   */\n      dup1\n        /* \"--CODEGEN--\":20:32   */\n      revert\n        /* \"--CODEGEN--\":5:7   */\n    tag_1:\n        /* \"contracts/Arrays.sol\":25:598  contract MyContract{... */\n      pop\n      jumpi(tag_2, lt(calldatasize, 0x04))\n      shr(0xe0, calldataload(0x00))\n      dup1\n      0x09e96008\n      eq\n      tag_3\n      jumpi\n      dup1\n      0x479291ef\n      eq\n      tag_4\n      jumpi\n      dup1\n      0xbef55ef3\n      eq\n      tag_5\n      jumpi\n      dup1\n      0xe0ba432a\n      eq\n      tag_6\n      jumpi\n    tag_2:\n      0x00\n      dup1\n      revert\n        /* \"contracts/Arrays.sol\":343:438  function updateData(uint _b) external{... */\n    tag_3:\n      tag_7\n      0x04\n      dup1\n      calldatasize\n      sub\n        /* \"--CODEGEN--\":13:15   */\n      0x20\n        /* \"--CODEGEN--\":8:11   */\n      dup2\n        /* \"--CODEGEN--\":5:16   */\n      lt\n        /* \"--CODEGEN--\":2:4   */\n      iszero\n      tag_8\n      jumpi\n        /* \"--CODEGEN--\":29:30   */\n      0x00\n        /* \"--CODEGEN--\":26:27   */\n      dup1\n        /* \"--CODEGEN--\":19:31   */\n      revert\n        /* \"--CODEGEN--\":2:4   */\n    tag_8:\n        /* \"contracts/Arrays.sol\":343:438  function updateData(uint _b) external{... */\n      dup2\n      add\n      swap1\n      dup1\n      dup1\n      calldataload\n      swap1\n      0x20\n      add\n      swap1\n      swap3\n      swap2\n      swap1\n      pop\n      pop\n      pop\n      tag_9\n      jump\t// in\n    tag_7:\n      stop\n        /* \"contracts/Arrays.sol\":163:337  function insertData (uint _a) external{... */\n    tag_4:\n      tag_10\n      0x04\n      dup1\n      calldatasize\n      sub\n        /* \"--CODEGEN--\":13:15   */\n      0x20\n        /* \"--CODEGEN--\":8:11   */\n      dup2\n        /* \"--CODEGEN--\":5:16   */\n      lt\n        /* \"--CODEGEN--\":2:4   */\n      iszero\n      tag_11\n      jumpi\n        /* \"--CODEGEN--\":29:30   */\n      0x00\n        /* \"--CODEGEN--\":26:27   */\n      dup1\n        /* \"--CODEGEN--\":19:31   */\n      revert\n        /* \"--CODEGEN--\":2:4   */\n    tag_11:\n        /* \"contracts/Arrays.sol\":163:337  function insertData (uint _a) external{... */\n      dup2\n      add\n      swap1\n      dup1\n      dup1\n      calldataload\n      swap1\n      0x20\n      add\n      swap1\n      swap3\n      swap2\n      swap1\n      pop\n      pop\n      pop\n      tag_12\n      jump\t// in\n    tag_10:\n      stop\n        /* \"contracts/Arrays.sol\":444:524  function readData() external view returns(uint){... */\n    tag_5:\n      tag_13\n      tag_14\n      jump\t// in\n    tag_13:\n      mload(0x40)\n      dup1\n      dup3\n      dup2\n      mstore\n      0x20\n      add\n      swap2\n      pop\n      pop\n      mload(0x40)\n      dup1\n      swap2\n      sub\n      swap1\n      return\n        /* \"contracts/Arrays.sol\":530:593  function deleteData() external {... */\n    tag_6:\n      tag_15\n      tag_16\n      jump\t// in\n    tag_15:\n      stop\n        /* \"contracts/Arrays.sol\":343:438  function updateData(uint _b) external{... */\n    tag_9:\n        /* \"contracts/Arrays.sol\":401:403  _b */\n      dup1\n        /* \"contracts/Arrays.sol\":390:395  myArr */\n      0x00\n        /* \"contracts/Arrays.sol\":396:397  0 */\n      dup1\n        /* \"contracts/Arrays.sol\":390:398  myArr[0] */\n      dup2\n      sload\n      dup2\n      lt\n      tag_18\n      jumpi\n      invalid\n    tag_18:\n      swap1\n      0x00\n      mstore\n      keccak256(0x00, 0x20)\n      add\n        /* \"contracts/Arrays.sol\":390:403  myArr[0] = _b */\n      dup2\n      swap1\n      sstore\n      pop\n        /* \"contracts/Arrays.sol\":343:438  function updateData(uint _b) external{... */\n      pop\n      jump\t// out\n        /* \"contracts/Arrays.sol\":163:337  function insertData (uint _a) external{... */\n    tag_12:\n        /* \"contracts/Arrays.sol\":211:216  myArr */\n      0x00\n        /* \"contracts/Arrays.sol\":222:224  _a */\n      dup2\n        /* \"contracts/Arrays.sol\":211:225  myArr.push(_a) */\n      swap1\n      dup1\n        /* \"--CODEGEN--\":39:40   */\n      0x01\n        /* \"--CODEGEN--\":33:36   */\n      dup2\n        /* \"--CODEGEN--\":27:37   */\n      sload\n        /* \"--CODEGEN--\":23:41   */\n      add\n        /* \"--CODEGEN--\":57:67   */\n      dup1\n        /* \"--CODEGEN--\":52:55   */\n      dup3\n        /* \"--CODEGEN--\":45:68   */\n      sstore\n        /* \"--CODEGEN--\":79:89   */\n      dup1\n        /* \"--CODEGEN--\":72:89   */\n      swap2\n      pop\n        /* \"--CODEGEN--\":0:93   */\n      pop\n        /* \"contracts/Arrays.sol\":211:225  myArr.push(_a) */\n      0x01\n      swap1\n      sub\n      swap1\n      0x00\n      mstore\n      keccak256(0x00, 0x20)\n      add\n      0x00\n      swap1\n      swap2\n      swap1\n      swap2\n      swap1\n      swap2\n      pop\n      sstore\n        /* \"contracts/Arrays.sol\":163:337  function insertData (uint _a) external{... */\n      pop\n      jump\t// out\n        /* \"contracts/Arrays.sol\":444:524  function readData() external view returns(uint){... */\n    tag_14:\n        /* \"contracts/Arrays.sol\":486:490  uint */\n      0x00\n        /* \"contracts/Arrays.sol\":509:514  myArr */\n      dup1\n        /* \"contracts/Arrays.sol\":515:516  0 */\n      0x00\n        /* \"contracts/Arrays.sol\":509:517  myArr[0] */\n      dup2\n      sload\n      dup2\n      lt\n      tag_23\n      jumpi\n      invalid\n    tag_23:\n      swap1\n      0x00\n      mstore\n      keccak256(0x00, 0x20)\n      add\n      sload\n        /* \"contracts/Arrays.sol\":502:517  return myArr[0] */\n      swap1\n      pop\n        /* \"contracts/Arrays.sol\":444:524  function readData() external view returns(uint){... */\n      swap1\n      jump\t// out\n        /* \"contracts/Arrays.sol\":530:593  function deleteData() external {... */\n    tag_16:\n        /* \"contracts/Arrays.sol\":578:583  myArr */\n      0x00\n        /* \"contracts/Arrays.sol\":584:585  0 */\n      dup1\n        /* \"contracts/Arrays.sol\":578:586  myArr[0] */\n      dup2\n      sload\n      dup2\n      lt\n      tag_26\n      jumpi\n      invalid\n    tag_26:\n      swap1\n      0x00\n      mstore\n      keccak256(0x00, 0x20)\n      add\n        /* \"contracts/Arrays.sol\":571:586  delete myArr[0] */\n      0x00\n      swap1\n      sstore\n        /* \"contracts/Arrays.sol\":530:593  function deleteData() external {... */\n      jump\t// out\n\n    auxdata: 0xa2646970667358221220c07cd669e35de03f3109215d4042c2a8a63372e99b79af4141e3b9f3ca71be0d64736f6c63430006000033\n}\n",
				"bytecode": {
					"linkReferences": {},
					"object": "608060405234801561001057600080fd5b50610192806100206000396000f3fe608060405234801561001057600080fd5b506004361061004c5760003560e01c806309e9600814610051578063479291ef1461007f578063bef55ef3146100ad578063e0ba432a146100cb575b600080fd5b61007d6004803603602081101561006757600080fd5b81019080803590602001909291905050506100d5565b005b6100ab6004803603602081101561009557600080fd5b81019080803590602001909291905050506100f4565b005b6100b5610120565b6040518082815260200191505060405180910390f35b6100d361013f565b005b80600080815481106100e357fe5b906000526020600020018190555050565b600081908060018154018082558091505060019003906000526020600020016000909190919091505550565b60008060008154811061012f57fe5b9060005260206000200154905090565b6000808154811061014c57fe5b906000526020600020016000905556fea2646970667358221220c07cd669e35de03f3109215d4042c2a8a63372e99b79af4141e3b9f3ca71be0d64736f6c63430006000033",
					"opcodes": "PUSH1 0x80 PUSH1 0x40 MSTORE CALLVALUE DUP1 ISZERO PUSH2 0x10 JUMPI PUSH1 0x0 DUP1 REVERT JUMPDEST POP PUSH2 0x192 DUP1 PUSH2 0x20 PUSH1 0x0 CODECOPY PUSH1 0x0 RETURN INVALID PUSH1 0x80 PUSH1 0x40 MSTORE CALLVALUE DUP1 ISZERO PUSH2 0x10 JUMPI PUSH1 0x0 DUP1 REVERT JUMPDEST POP PUSH1 0x4 CALLDATASIZE LT PUSH2 0x4C JUMPI PUSH1 0x0 CALLDATALOAD PUSH1 0xE0 SHR DUP1 PUSH4 0x9E96008 EQ PUSH2 0x51 JUMPI DUP1 PUSH4 0x479291EF EQ PUSH2 0x7F JUMPI DUP1 PUSH4 0xBEF55EF3 EQ PUSH2 0xAD JUMPI DUP1 PUSH4 0xE0BA432A EQ PUSH2 0xCB JUMPI JUMPDEST PUSH1 0x0 DUP1 REVERT JUMPDEST PUSH2 0x7D PUSH1 0x4 DUP1 CALLDATASIZE SUB PUSH1 0x20 DUP2 LT ISZERO PUSH2 0x67 JUMPI PUSH1 0x0 DUP1 REVERT JUMPDEST DUP2 ADD SWAP1 DUP1 DUP1 CALLDATALOAD SWAP1 PUSH1 0x20 ADD SWAP1 SWAP3 SWAP2 SWAP1 POP POP POP PUSH2 0xD5 JUMP JUMPDEST STOP JUMPDEST PUSH2 0xAB PUSH1 0x4 DUP1 CALLDATASIZE SUB PUSH1 0x20 DUP2 LT ISZERO PUSH2 0x95 JUMPI PUSH1 0x0 DUP1 REVERT JUMPDEST DUP2 ADD SWAP1 DUP1 DUP1 CALLDATALOAD SWAP1 PUSH1 0x20 ADD SWAP1 SWAP3 SWAP2 SWAP1 POP POP POP PUSH2 0xF4 JUMP JUMPDEST STOP JUMPDEST PUSH2 0xB5 PUSH2 0x120 JUMP JUMPDEST PUSH1 0x40 MLOAD DUP1 DUP3 DUP2 MSTORE PUSH1 0x20 ADD SWAP2 POP POP PUSH1 0x40 MLOAD DUP1 SWAP2 SUB SWAP1 RETURN JUMPDEST PUSH2 0xD3 PUSH2 0x13F JUMP JUMPDEST STOP JUMPDEST DUP1 PUSH1 0x0 DUP1 DUP2 SLOAD DUP2 LT PUSH2 0xE3 JUMPI INVALID JUMPDEST SWAP1 PUSH1 0x0 MSTORE PUSH1 0x20 PUSH1 0x0 KECCAK256 ADD DUP2 SWAP1 SSTORE POP POP JUMP JUMPDEST PUSH1 0x0 DUP2 SWAP1 DUP1 PUSH1 0x1 DUP2 SLOAD ADD DUP1 DUP3 SSTORE DUP1 SWAP2 POP POP PUSH1 0x1 SWAP1 SUB SWAP1 PUSH1 0x0 MSTORE PUSH1 0x20 PUSH1 0x0 KECCAK256 ADD PUSH1 0x0 SWAP1 SWAP2 SWAP1 SWAP2 SWAP1 SWAP2 POP SSTORE POP JUMP JUMPDEST PUSH1 0x0 DUP1 PUSH1 0x0 DUP2 SLOAD DUP2 LT PUSH2 0x12F JUMPI INVALID JUMPDEST SWAP1 PUSH1 0x0 MSTORE PUSH1 0x20 PUSH1 0x0 KECCAK256 ADD SLOAD SWAP1 POP SWAP1 JUMP JUMPDEST PUSH1 0x0 DUP1 DUP2 SLOAD DUP2 LT PUSH2 0x14C JUMPI INVALID JUMPDEST SWAP1 PUSH1 0x0 MSTORE PUSH1 0x20 PUSH1 0x0 KECCAK256 ADD PUSH1 0x0 SWAP1 SSTORE JUMP INVALID LOG2 PUSH5 0x6970667358 0x22 SLT KECCAK256 0xC0 PUSH29 0xD669E35DE03F3109215D4042C2A8A63372E99B79AF4141E3B9F3CA71BE 0xD PUSH5 0x736F6C6343 STOP MOD STOP STOP CALLER "
				},
				"gasEstimates": {
					"creation": {
						"codeDepositCost": "80400",
						"executionCost": "129",
						"totalCost": "80529"
					},
					"external": {
						"deleteData()": "6077",
						"insertData(uint256)": "41151",
						"readData()": "1915",
						"updateData(uint256)": "21100"
					}
				},
				"methodIdentifiers": {
					"deleteData()": "e0ba432a",
					"insertData(uint256)": "479291ef",
					"readData()": "bef55ef3",
					"updateData(uint256)": "09e96008"
				}
			},
			"storageLayout": {
				"storage": [
					{
						"astId": 4,
						"contract": "contracts/Arrays.sol:MyContract",
						"label": "myArr",
						"offset": 0,
						"slot": "0",
						"type": "t_array(t_uint256)dyn_storage"
					}
				],
				"types": {
					"t_array(t_uint256)dyn_storage": {
						"base": "t_uint256",
						"encoding": "dynamic_array",
						"label": "uint256[]",
						"numberOfBytes": "32"
					},
					"t_uint256": {
						"encoding": "inplace",
						"label": "uint256",
						"numberOfBytes": "32"
					}
				}
			},
			"userdoc": {
				"methods": {}
			}
		}
	}
}